:100000000C942A000C9434000C9434000C943400AA
:100010000C9434000C9434000C9434000C94340090
:100020000C9434000C9434000C9434000C94340080
:100030000C9434000C9434000C9434000C94340070
:100040000C9434000C9434000C9434000C94340060
:100050000C94340011241FBECFE5D8E0DEBFCDBF25
:100060000E9445000C9455000C94000080E487B970
:10007000369A83E08A95F1F7000024B185B190E0CB
:10008000982F8827820F911D089581E084BB1ABAAA
:1000900087E886B980E487B90E94360081309240B3
:0E00A00014F0A89AF9CF15BAF7CFF894FFCF55
:00000001FF
