S015000074726166666963206C696768742E73726563F8
S11300000C942A000C9434000C9434000C943400A6
S11300100C9434000C9434000C9434000C9434008C
S11300200C9434000C9434000C9434000C9434007C
S11300300C9434000C9434000C9434000C9434006C
S11300400C9434000C9434000C9434000C9434005C
S11300500C94340011241FBECFE5D8E0DEBFCDBF21
S11300600E945B000C9410020C94000080E487B999
S1130070369A3699FECF84B195B1089500C081E4D3
S113008087B9369A3699FECF84B195B1089518167A
S1130090190684F420E030E04FE35DE063E0415072
S11300A050406040E1F700C000002F5F3F4F8217CF
S11300B0930791F708958FEF84BB1ABA87E886B93E
S11300C080E487B90F2EF4E26F2EF02D0F2EF2E2AA
S11300D07F2EF02D01E8412C6894552451F811E449
S11300E00E9436007C010E943E00EC01B701FF0C27
S11300F0880B990B0E94EF006B017C012DEC3CEC0A
S11301004CE45DE30E9453014B015C012FE632E1B4
S113011043E05CE3C701B6010E9453010E94B700AB
S11301206B017C0165BAC501B4010E94B700CB0123
S11301300E94470075BAC6010E94470005BBC20170
S1130140BE010E94E801072E000C880B990B0E9447
S1130150EF00A50194010E9453010E94B700CB0156
S11301600E94470015BBC6010E944700B9CF0E94F8
S1130170BE006894B1110C944D0108950E9432019F
S113018088F09F5798F0B92F9927B751B0F0E1F054
S1130190660F771F881F991F1AF0BA95C9F714C004
S11301A0B13091F00E944C01B1E008950C944C01DF
S11301B0672F782F8827B85F39F0B93FCCF386953D
S11301C077956795B395D9F73EF49095809570959A
S11301D061957F4F8F4F9F4F0895E89409C097FB17
S11301E03EF490958095709561957F4F8F4F9F4F0A
S11301F09923A9F0F92F96E9BB279395F69587954E
S113020077956795B795F111F8CFFAF4BB0F11F410
S113021060FF1BC06F5F7F4F8F4F9F4F16C08823B7
S113022011F096E911C0772321F09EE8872F762FED
S113023005C0662371F096E8862F70E060E02AF02E
S11302409A95660F771F881FDAF7880F969587951A
S113025097F9089557FD9058440F551F59F05F3F83
S113026071F04795880F97FB991F61F09F3F79F0D4
S113027087950895121613061406551FF2CF469556
S1130280F1DF08C0161617061806991FF1CF8695D8
S11302907105610508940895E894BB2766277727BC
S11302A0CB0197F908950E9466010C94D7010E942E
S11302B0C90138F00E94D00120F0952311F00C946C
S11302C0C0010C94C60111240C944D010E942A0112
S11302D070F3959FC1F3950F50E0551F629FF00195
S11302E0729FBB27F00DB11D639FAA27F00DB11DAE
S11302F0AA1F649F6627B00DA11D661F829F222737
S1130300B00DA11D621F739FB00DA11D621F839FBD
S1130310A00D611D221F749F3327A00D611D231F93
S1130320849F600D211D822F762F6A2F11249F57E1
S113033050409AF0F1F088234AF0EE0FFF1FBB1FE4
S1130340661F771F881F91505040A9F79E3F5105A3
S113035080F00C94C0010C944D015F3FE4F3983E8F
S1130360D4F3869577956795B795F795E7959F5F4D
S1130370C1F7FE2B880F911D9695879597F90895DF
S113038097F99F6780E870E060E008959FEF80EC44
S1130390089500240A9416161706180609060895E7
S11303A000240A9412161306140605060895092E4D
S11303B00394000C11F4882352F0BB0F40F4BF2BBC
S11303C011F460FF04C06F5F7F4F8F4F9F4F0895FC
S11303D097FB072E16F4009407D077FD09D00E94EE
S11303E0FC0107FC05D03EF4909581959F4F08953C
S11303F0709561957F4F0895AA1BBB1B51E107C0FF
S1130400AA1FBB1FA617B70710F0A61BB70B881FA0
S1130410991F5A95A9F780959095BC01CD0108952F
S1070420F894FFCF7A
S9030000FC
